:10200000008000207D420000654200006542000023
:1020100000000000000000000000000000000000C0
:102020000000000000000000000000006542000009
:10203000000000000000000065420000D1420000E6
:10204000654200006542000065420000A5380000BE
:1020500065420000654200006542000069420000E0
:10206000654200008D410000AD4100006542000066
:1020700065410000654200009D410000654200008E
:1020800065420000654200006542000065420000B4
:10209000000000006542000065420000654200004B
:1020A0006542000065420000654200006542000094
:1020B0000000000010B5064C2378002B07D1054B1B
:1020C000002B02D0044800E000BF0123237010BDA4
:1020D0008C0200200000000090E10000044B10B5CD
:1020E000002B03D00349044800E000BF10BDC046E8
:1020F000000000009002002090E100007047000006
:1021000070B5194D1949280002F054FC184C2900EB
:10211000200000F099FD0021200000F00BFE2000BF
:1021200000F038FE2000134900F090FD002320004D
:102130001A00012100F0CCFD0F4E2900300000F004
:10214000C3FE0E4C32002900200001F0CBF90A2119
:10215000200001F01BFA200001F0F6F9002802D05F
:10216000200001F077FA70BD100E0020A2D7000009
:1021700004030020FD2000009003002094040020B0
:10218000F0B5324C85B0200001F0EAFD200001F0EE
:1021900059FD071C200001F0B3FD0290200001F062
:1021A00089FD061C200001F090FD051C200001F0B7
:1021B00099FD0390200001F073FDFA20800002F0E9
:1021C000CBF8234C2349200002F0D9FB381C07F040
:1021D0000FF9022702000B000097200002F01CFDFF
:1021E0001D49200002F0CBFB301C07F001F90097DD
:1021F00002000B00200002F00FFD1849200002F041
:10220000BEFB281C07F0F4F8009702000B0020002A
:1022100002F002FD1249200002F0B1FB039807F022
:10222000E7F8009702000B00200002F0F5FC0D49D2
:10223000200002F0A4FB029807F0DAF800970200F1
:102240000B00200002F0E8FC05B0F0BDA802002061
:10225000100E0020D8D30000D4D30000E6D3000035
:10226000F5D3000004D4000010B5FFF789FF0C4C33
:10227000200001F069F9002806D10A21200001F0B0
:1022800085F9200001F060F90023064C1A001900BE
:10229000200000F019FD200000F0FAFC10BDC0463F
:1022A000940400200403002010B5024801F0E8FC6B
:1022B00010BDC046A802002070B50E001500094CE4
:1022C00001682000C9B201F009FE3100200001F0D0
:1022D00053FE2900200001F04FFE200001F0A9FE6E
:1022E00070BDC0460805002010B5B522F421FFF7E7
:1022F000E3FF10BD70B50E0005000368104CD9B2A5
:10230000200001F0EBFD3100200001F035FE20003F
:1023100001F08FFE2B680122D9B2200001F027FEC8
:10232000200001F081FD002802DC0020287170BD32
:10233000012320002B7101F081FEC0B2F7E7C046F7
:102340000805002070B50E0005000368134CD9B2D3
:10235000200001F0C3FD3100200001F00DFE20003F
:1023600001F067FE2B680222D9B2200001F0FFFDC8
:10237000200001F059FD012802DC0020287170BD09
:10238000012320002B7101F059FE0500200001F00F
:1023900055FE2D02C0B2284380B2F0E708050020A8
:1023A00010B5FFF7CFFF40BA80B210BD70B5016025
:1023B0000400474801F072FD06250026013DEDB2FC
:1023C000002D0AD0602E08D0D0212000FFF792FF08
:1023D0000600642001F0C0FFF0E788212000FFF72D
:1023E000DFFF8A21E0802000FFF7DAFF8C212081C7
:1023F0002000FFF7D5FF8E2160812000FFF7D0FF7E
:102400009021A0812000FFF7CBFF9221E0812000E6
:10241000FFF7C6FF942120822000FFF7C1FF96211D
:1024200060822000FFF7BCFF9821A0822000FFF708
:10243000B7FF9A21E0822000FFF7B2FF9C212083A2
:102440002000FFF7ADFF9E2160832000FFF7A8FF6B
:10245000A121A0832000FFF74DFFE121A0772000FC
:10246000FFF79EFFE32120842000FFF743FFE31CDA
:10247000D877E4212000FFF73DFFE521050020008B
:10248000FFF738FF0F232D0118402843A084E621D1
:102490002000FFF72FFFE52105002000FFF72AFFAE
:1024A0002D0100110543E584E7212000FFF722FFFD
:1024B0002300283318700522F2212000FFF7FCFECC
:1024C000B522F4212000FFF7F7FE012070BDC046C1
:1024D0000805002070B50E0005000368184CD9B23D
:1024E000200001F0FBFC3100200001F045FD200040
:1024F00001F09FFD2B680322D9B2200001F037FDC7
:10250000200001F091FC022802DC0020287170BD3F
:102510002B79002B05D101332B7129682800FFF797
:1025200045FF200001F08AFD0502200001F086FD34
:102530000543200001F082FD2D022843E7E7C04655
:102540000805002010B50400FA21FFF7C3FF237926
:10255000002B1BD0E28803129B1AC01152005B4370
:10256000821A0821605E1B1350430A21625EC0126A
:1025700053439B13C0180523E06258438030001278
:1025800005F00EF9024904F0E1FD10BD0020FCE762
:102590000000C84210B50400FFF7D4FF00202379E3
:1025A000834245D0FD212000FFF7CCFEE36A214A9B
:1025B00080039A182421635E1B05C01A2621635EDE
:1025C00080215343C901C31A5B18E11CC87F8021D5
:1025D00050430902C0124118200028300078DB1354
:1025E00040B25043802280124843920380128218E6
:1025F0002021605E50438022920180188013434363
:10260000D8134043A27FC01150430011181AC3438E
:10261000DB171840C8235B05984200DD1800001343
:1026200006F0B4FE0022044B06F06AF804F0BAFB90
:1026300010BDC04600D4FEFF0000503FF0B587B08B
:102640000290FFF77FFF029B1B79002B02D1002035
:1026500007B0F0BD0127F7210298FFF73BFF029B6F
:10266000554EDB6A7F420093009A0590D317B61847
:102670005F4132003B003000390004F069FB0090FC
:102680000191029B32000E20185E3B00C11704F03E
:102690005FFB030D0D031D43029B04031020185E16
:1026A000009A019BC11704F053FB0B069C46020ADB
:1026B00060460B12024312196B411900802310006F
:1026C00000221B0280185941029B9A89002304F0C2
:1026D0003FFB4B100393CB170493049A039B1343C4
:1026E000B5D0029B1620185E009A019BC11704F01A
:1026F0002FFB029B04001420185E32003B000D00EB
:10270000C11704F025FB8C466646C10B73040B43CE
:102710004204A4185D41059B1F1180235B03DB1B52
:10272000DF175A08F90711430022D807029B122726
:10273000DF5FFB0012196B41801A99411F4A002389
:1027400004F006FB039A049B04F0DEFACB04440B6E
:102750001C43029B06001C20185E4D130F00220034
:102760002B00C11704F0F4FA22002B0004F0F0FA59
:10277000CB01440E1C43029B32001A20185E4D16FA
:102780003B00C11704F0E4FAA4197D41C20C4E03CA
:102790003243CB14A4185D412B06260A1E43029B2C
:1027A0002F1218229B5EDC171A0F2101114318010A
:1027B00080197941000A4BE7000CFEFF350C000040
:1027C00081607047F0B585B001910500344900681B
:1027D000029204F021FB334904F090FE041C06F041
:1027E00007FE06000F00201C002104F083FA0022DF
:1027F0002D4B002849D03000390005F05BF806F079
:1028000055FD2A490400686804F006FB254904F0D8
:1028100075FE039006F0ECFD06000F000398002102
:1028200004F068FA0022204B002833D03000390031
:1028300005F040F806F03AFD06001D49A86802F0D0
:102840009EF80A222100A86802F001F91949A86837
:1028500002F095F831000A22A86802F0F8F8019A0F
:102860000299230E53548C4613000820634422140B
:102870005A7022129A70320E1A7132145A71321230
:10288000DC709A71DE7105B0F0BD3000390006F0E1
:10289000A9F9B4E73000390006F0A4F9CAE7C04648
:1028A0000000B6420050C3470000E03F000035433F
:1028B00013D4000018D400008023002A06D040233F
:1028C000012A03D00023022A00D1202301200B700B
:1028D0007047F8B505000E001700FFF7EDFF040084
:1028E000012F06D1020031002800FFF76BFF2418EA
:1028F000E4B22000F8BD0430C37F0A203F2B01D092
:1029000001D8013870470B205F2BFBD00130F9E76D
:102910000B00010010B517310822180006F078FFEF
:1029200010BD807D704770B505000C0000F0DEFE24
:10293000002810D0CC2C08D003D8552C0CD0002067
:1029400009E0EC2C01D0F02CF9D100222100280064
:1029500000F029FF012070BD29002800173100F088
:1029600052FFF7E770B5050014001E00FFF7DBFF0C
:10297000002814D04E2C0AD005D8442C09D0482C5D
:1029800007D000200BE0B42C01D0BE2CF9D10022DE
:1029900000E032002800210000F005FF012070BD9A
:1029A000F8B5040025000023BE2255211F3527005D
:1029B000FFF7D8FF2E002837200000F012FF287004
:1029C0000135BD42F8D13000082100F051FF083434
:1029D000E37F181A43425841C0B2F8BD0300F7B56F
:1029E00033331E780400002E58D1FFF79CFF0028D7
:1029F00054D035000096200000F0BEFE0190070084
:102A0000200000F0B9FE019B002B06D0002804D066
:102A10000023323423703000FEBDEB08E3181A00A7
:102A200007219C46019B2A321843C0B229401278E4
:102A3000002824D1200032300078A8422AD02BD39D
:102A4000170001230F411F4026D001206346884014
:102A50002A3302431A70013539002000EDB200F02C
:102A600070FE402DC7D16A462300127832331A70A7
:102A7000009B0126002BCED133342670CBE7019B7F
:102A8000002BE2D10120634688402A3382431A702A
:102A90000027E0E70127D8E70095F3E700266686E0
:102AA000B9E7F8B50E00F0210500FFF73CFF00285C
:102AB0001BD00024280000F05FFE0700280000F073
:102AC0005BFE002F01D000280FD1E308F15C072343
:102AD000234019410123013419402800E4B200F0D9
:102AE00030FE402CE6D1012000E00020F8BD70B59A
:102AF00004000D00FFF7D5FF002801D1002070BDB4
:102B0000200008222900173006F082FE2000FFF77F
:102B100047FF0028F2D02000FFF7EDFE2300283306
:102B20001870B422002355212000FFF71BFF20005E
:102B300000F022FE293420700120E0E710B5F021DA
:102B40000400FFF74BFF002804D0210020002A31A9
:102B5000FFF7CDFF10BD10B5040000F06DFE00239F
:102B6000B4222375A37523856386CC212000FFF74B
:102B7000F9FE200000F000FE60752000FFF7DEFF88
:102B800000280AD02000FFF7B6FE237D834200D242
:102B90002075A37D0133A375EFE7200010BD000071
:102BA00010B50400002A05D0200000F0E5FD002843
:102BB000FAD010BD093908000329FAD803F0ACFE99
:102BC0000206080B5E2001F0C7FBF2E7BC20FAE723
:102BD0007820FF30F7E70148F5E7C046EE02000035
:102BE00070B5050029352B7804005A425341552110
:102BF000DBB24422FFF7B6FE013D6A782000297857
:102C0000FFF7CEFF2000FFF7CBFE2A78E37F0134E9
:102C1000E07F0A2A11D00B2A11D0092A01D1023AE9
:102C200093430002C01800B206F076FB0022054B69
:102C300005F066FD06F02EFC70BD0322F0E70122D0
:102C4000EEE7C0460000B03F4160704770B5040039
:102C50000D0040680D4901F0ADFE2000002100F09C
:102C600089FF002320001A00190000F089FE0022CD
:102C7000D0231100200000F0CFFE2000032100F03F
:102C80001FFE2900200000F02FFE70BD3AD4000086
:102C900010B50C490400406801F08CFE01210F20A2
:102CA00001F04AFD01210F2001F076FDFA204000DD
:102CB00001F052FB00210F2001F06EFD200000F01A
:102CC00019FE10BD1DD4000010B500F059FE10BD56
:102CD000F8B51D000023040017000E001A001900AB
:102CE00000F04EFE2B003A003100200000F0E2FE22
:102CF0000E49606801F043FE0A223100606801F06D
:102D0000BCFE0B4E6068310001F039FE39000A222A
:102D1000606801F0B2FE3100606801F030FE290009
:102D20000A22606801F0ADFEF8BDC0464FD4000035
:102D300049D7000070B540680D00154901F03AFE12
:102D400000242300123BDBB2012B07D90121200014
:102D500001F0F2FC0121200001F01EFD01341A2CCB
:102D6000EFD1002D13D129000D2001F015FD012117
:102D70000F2001F0E1FC01210F2001F00DFDFA20F0
:102D8000400001F0E9FA29000F2001F005FD70BDB7
:102D90002BD4000010B50649406801F00BFE01215C
:102DA000262001F0C9FC0021262001F0F5FC10BD11
:102DB00066D4000010B5044C200000F06FFD002325
:102DC000A360E360236110BD0403002010B5024836
:102DD00000F0E6FF10BDC0461803002070B50400E7
:102DE00008000D0007F060FC2368020029005B6802
:102DF0002000984770BD802210B5040052000021C9
:102E0000043006F00EFD200010BD000070B50E006D
:102E100090B015001C00002910D040220021684607
:102E200006F0FFFC32001949684607F01DFC6946B0
:102E3000174801F0A4FD642001F08EFA002D10D097
:102E400040220021684606F0ECFC2A001149684641
:102E500007F00AFC69460E4801F091FD642001F07C
:102E60007BFA002C10D040220021684606F0D9FCE5
:102E700022000949684607F0F7FB6946044801F05B
:102E80007EFD642001F068FA10B070BD48D60000E5
:102E90003C0700205DD6000071D6000010B5044943
:102EA000044801F087FDC82001F056FA10BDC04665
:102EB000C7D600003C07002010B50248FFF79BFF73
:102EC00010BDC0469003002010B501609621024855
:102ED000890102F01BF910BD3C070020F7B50C007A
:102EE000070001F003FAFA2306009B0063430193F5
:102EF0000C4D280002F06AFA00280BD03C6828002C
:102F000023681B68009302F025FA009BC1B22000E1
:102F10009847EDE701F0EAF9019B801B9842E7D959
:102F2000F7BDC0463C070020F0B5040091B00F008B
:102F300016001D00002914D040220021684606F02A
:102F400070FC3A001F49684607F08EFB69461E4830
:102F500001F015FD20000121FFF7C0FF642001F002
:102F6000FBF9002E14D040220021684606F059FCDF
:102F700032001649684607F077FB6946124801F0AF
:102F8000FEFC20000121FFF7A9FF642001F0E4F915
:102F9000002D14D040220021684606F042FC2A0091
:102FA0000B49684607F060FB6946074801F0E7FCFB
:102FB00020000121FFF792FF642001F0CDF911B04C
:102FC000F0BDC04685D600003C0700209BD600001F
:102FD000B1D6000070B50E0088B00500214C224922
:102FE000002A1DD02149012A1AD02149022A17D0CE
:102FF0002049032A14D02049042A11D01F49052A48
:103000000ED01F49062A0BD01E49072A08D01E4998
:10301000082A05D01D49092A02D00A2A03D11C49D1
:10302000200001F0ACFC01212800FFF757FF6420CD
:1030300001F092F920220021684606F0F2FB3200EE
:103040001449684607F010FB6946200001F097FC20
:1030500001212800FFF742FF642001F07DF908B04C
:1030600070BDC0463C0700208BD4000099D40000FE
:10307000A7D40000B5D40000C9D40000D7D4000004
:10308000E8D40000F6D4000004D5000012D50000FA
:1030900020D500002ED5000030B50D00040089B009
:1030A00020220021684606F0BCFB2A000849684639
:1030B00007F0DAFA6946074801F061FC01212000B7
:1030C000FFF70CFF642001F047F909B030BDC0469E
:1030D000CAD600003C07002010B5040007480029AC
:1030E0000AD0074901F04BFC01212000FFF7F6FE52
:1030F000642001F031F910BD0249F3E73C070020DC
:1031000005D6000011D60000F0B58BB0171C0500E5
:1031100020220E0002A8002106F083FB381C04F0D8
:103120001FFB104904B2381C04F0E8F904F018FB46
:103130000A2100B203F06AFD09B2230032000091B7
:1031400002A8094907F090FA02A9084801F017FC03
:1031500001212800FFF7C2FE642001F0FDF80BB04A
:10316000F0BDC046000020417AD400003C0700209A
:10317000F0B58BB0171C050020220E0002A800211C
:1031800006F04FFB381C04F0EBFA104904B2381C6F
:1031900004F0B4F904F0E4FA0A2100B203F036FDB9
:1031A00009B223003200009102A8094907F05CFA35
:1031B00002A9084801F0E3FB01212800FFF78EFE79
:1031C000642001F0C9F80BB0F0BDC04600002041FA
:1031D0001ED600003C070020F0B58BB00F1C050088
:1031E00016000021202202A806F01BFB1049381C03
:1031F00004F084F904F0B4FA0A2100B203F006FDE9
:10320000381C0CB204F0ACFA230002B20096094953
:1032100002A807F029FA02A9074801F0B0FB012132
:103220002800FFF75BFE642001F096F80BB0F0BDBC
:103230000000204133D600003C07002010B50400F8
:10324000074800290AD0074901F099FB0121200015
:10325000FFF744FE642001F07FF810BD0249F3E758
:103260003C07002069D5000078D5000010B50400A7
:10327000074800290AD0074901F081FB01212000FD
:10328000FFF72CFE642001F067F810BD0249F3E758
:103290003C070020D8D50000E7D5000010B5040099
:1032A00000290BD10749084801F069FB01212000E2
:1032B000FFF714FE642001F04FF810BD0129F5D18D
:1032C0000249F0E788D500003C07002098D50000AF
:1032D00010B504000549064801F051FB012120000A
:1032E000FFF7FCFD642001F037F810BDF7D50000B2
:1032F0003C07002010B504000549064801F05AFBC0
:10330000C82001F029F82000FFF7E2FF10BDC046F9
:10331000C7D600003C070020F0B585B003930AAB88
:103320001C780E00029200F0E1FFFA239B00634339
:10333000070000240193029B9C420CDA0E4D2800EA
:1033400002F044F8002806D0280002F003F8631CBD
:1033500030551CB2F2E700F0C9FF039905003000B8
:1033600007F0A9F9002803D1019BED1B9D42E2D98A
:10337000200005B0F0BDC0463C070020F0B587B086
:103380000393002305000C001700224902AA0068DD
:10339000938101F005FB204E300002F017F8002861
:1033A00003D0300001F0D6FFF5E71C49300001F0F2
:1033B000E6FAE719BC420AD02278194905A807F0B5
:1033C00053F905A91448FFF709FD0134F2E715493F
:1033D000300001F0D4FA80222C1D52000021200080
:1033E00006F01FFA8022104E039B5200009321002A
:1033F00033002800FFF790FF2100286801F0BFFA92
:103400003100200007F057F9431E9841C0B207B0C1
:10341000F0BDC046A9D500003C070020B9D500008A
:10342000C5D50000C3D60000CAD50000F7B51C0002
:103430000191170000F05AFFFA239B006343060036
:1034400000240093BC420DDA0A4D280001F0BEFFB3
:10345000002807D0280001F07DFF019A631C105559
:103460001CB2F1E700F042FF009B801B9842E9D9B3
:103470002000FEBD3C07002070B5050016000029A5
:1034800024D11449144801F07AFA28000121FFF7E9
:1034900025FD642000F060FF80222C1D52000021D9
:1034A000200006F0BEF980223300520021002800DF
:1034B000FFF7BCFF2100286801F061FA07492000EE
:1034C00007F0F9F8431E9841C0B270BD0129DCD164
:1034D0000349D7E739D500003C07002053D5000049
:1034E00043D5000070B50400426001601148FFF749
:1034F00067F90C23A51CE387063BEB870E49206880
:1035000001F039FA0A220D49206801F0C4FA0C4989
:10351000206801F030FAE18F0A22206801F097FA62
:103520000849206801F027FAE98F0A22206801F093
:103530008EFA70BDF80200200AD7000080EE360037
:103540001CD7000031D700003A30007870470000E7
:1035500070B50D0004004068FFF7A0FC2A000021B0
:103560006068FFF789FF05006068FFF7C3FE044845
:103570000449002D00D1044901F01CFA280070BD57
:10358000100E00204BD7000073D70000F7B50700DE
:10359000002504003A373D7001910068284901F088
:1035A000FFF96068FFF77AFC23002A0029006068B1
:1035B0002933FFF72BFC23002A0008332900606819
:1035C000FFF7B2FC60680121FFF768FE1D4E29007D
:1035D0006068FFF781FD290060680122FFF7FAFCAF
:1035E000321C29006068FFF78FFD6068164A0121D0
:1035F000FFF78AFD6068154A0221FFF785FD321C3E
:1036000029006068FFF7B4FD2A0060681049FFF7E1
:10361000E3FD29006068FFF711FE29006068FFF7ED
:1036200025FE60680E21FFF737FD01992000FFF7A6
:103630008FFF38706068FFF75DFE3878FEBDC046CA
:103640009DD700006606594433135944002059445D
:103650000060594473B50023060001AD2B803A3653
:1036600033780400002B02D10F21FFF78FFF36784B
:10367000002E15D00B49206801F09CF96068FFF717
:103680000DFC022329001A000748FFF722F9052341
:10369000020029006068FFF771FE6068FFF72AFEEC
:1036A000300076BD98D70000F802002010B50C4C11
:1036B000212220000B49083006F0AAF82000112230
:1036C0000949293006F0A4F8220000233A32137089
:1036D000221DA387D38744340133237010BDC04615
:1036E00094040020D8D60000F9D6000010B5036875
:1036F000426872B6536062B67D2020240138C0B2A1
:1037000000281DD021000139FDD1116A1942F5D0E0
:1037100072B65361936062B6F02149010139FDD15F
:1037200072B68C215360C9000139FDD1106A18406E
:1037300043425841C0B262B6CD235B01013BFDD18B
:1037400010BD0CC8C9070CD572B6A0215A619A6089
:103750000139FDD19A6162B6DC239B00013BFDD1AA
:10376000704772B682215A61C9009A600139FDD151
:103770009A6162B65023F1E70368426872B630215D
:10378000936053610139FDD1A02153600139FDD10E
:10379000106A62B6D4229200013AFDD11840431E4D
:1037A0009841C0B27047F7B504000F000826012504
:1037B0000192290039404B1E99412000C9B26D0089
:1037C000013EFFF7BEFFEDB2002EF2D1019B002BB0
:1037D00006D172B6636822685A600CCC5A6162B630
:1037E000F7BDF8B507000826002501243800FFF7CB
:1037F000C3FF002800D025436400013EE4B2002E40
:10380000F4D12800F8BD70B50C0000225521260027
:103810000500FFF7C8FF0836217800222800013490
:10382000FFF7C1FFB442F7D170BD002383748360FA
:10383000C36003827047000070B50D0004000021D2
:10384000280000F079FF18216943074A5318586887
:103850000123834023608B56044ADB019B1863607D
:103860002000FFF7E2FF70BDECD7000000440041EC
:1038700030B5030041180F240020074A8B420AD0BC
:103880001D78013368400500000925401018555D7A
:10389000007C6840F2E730BDA8D700000023037029
:1038A00070470000044B10B51B68002B00D09847F0
:1038B0000122024B1A7210BDDC04002000140040EB
:1038C000037810B5002B0BD00724064B21401A7F3C
:1038D0000800A2431100014319779A7AD209FCD15A
:1038E00010BDC04600140040014B19607047C0462F
:1038F000DC0400200423034A11690B43136130BF29
:103900007047C04600ED00E0037810B5002B0BD0E7
:103910003F24064B21401A690800A24311000143CD
:1039200019619A7AD209FCD110BDC046001400403A
:103930000378002B0BD03F20054B08401A6905493E
:1039400080011140014319619A7AD209FCD1704774
:10395000001400403FF0FFFF0378002B0BD01F2026
:10396000054B08401A6905490003114001431961DC
:103970009A7AD209FCD1704700140040FF0FFEFF75
:1039800070B51600027804000D00002A0AD0190054
:10399000FFF7BAFF31002000FFF7CAFF290020001F
:1039A000FFF7DAFF70BD00000378002B0BD01F205B
:1039B000054B08401A69054940041140014319614B
:1039C0009A7AD209FCD1704700140040FFFFC1FF72
:1039D0000378002B0BD00F20054B08401A690549CE
:1039E00080051140014319619A7AD209FCD17047D0
:1039F00000140040FFFF3FFC0378002B09D0054A6C
:103A0000880613699901890901431161937ADB09D9
:103A1000FCD170470014004070B51D00037804000D
:103A20001600002B09D0FFF7BFFF31002000FFF781
:103A3000CFFF29002000FFF7DFFF70BD037810B52E
:103A4000002B0BD03F24064B21409A690800A2436B
:103A50001100014399619A7AD209FCD110BDC04688
:103A6000001400400378002B0BD03F20054B08408A
:103A70009A69054980011140014399619A7AD209F6
:103A8000FCD17047001400403FF0FFFF0378002B8B
:103A90000BD01F20054B08409A69054900031140CF
:103AA000014399619A7AD209FCD170470014004011
:103AB000FF0FFEFF70B51600027804000D00002A0B
:103AC0000AD01900FFF7BAFF31002000FFF7CAFF44
:103AD00029002000FFF7DAFF70BD0000094B0A4AF9
:103AE0009A605A7852B2002AFBDB084A5A605A7828
:103AF00052B2002AFBDB064A5A805A78D209FCD11E
:103B00007047C046000C004002040000020511008E
:103B1000044200000221044B1A888A431A809A7AD0
:103B2000D209FCD17047C046001400400222044B69
:103B300019880A431A809A7AD209FCD17047C04684
:103B4000001400400122044B19880A431A809A7A13
:103B5000D209FCD17047C046001400400121044B3B
:103B60001A888A431A809A7AD209FCD17047C046D3
:103B7000001400402023F7B500262A4A0F0091695F
:103B800005000B439361284B284A294C9A82B7427F
:103B90000BD1284B3E001A7870231A4205D0238897
:103BA0001B0702D50126236901932800FFF796FF22
:103BB0002800FFF7AFFF2800FFF7C4FF63881E4A05
:103BC000134063801D4B2380A37ADB09FCD1C02105
:103BD0001B4A08331360890053581B021B0A5350B9
:103BE0000123E27913430722E371237F9343237771
:103BF000A37ADB09FCD12800FFF798FF2800FFF724
:103C0000ADFF002F0BD1002E09D0019B002B06D059
:103C10002361A37ADB09FCD101332B70F7BD842328
:103C2000DB03F5E70004004000080040CE0600007A
:103C30000014004038040040FFBFFFFF080A0000E6
:103C400000E100E070B5074C05002000FEF769FEBA
:103C5000002804D02000FEF7C3FFE86370BD0248CF
:103C6000FCE7C046E00400200000C0C010B5012100
:103C7000262000F061FD0121262000F08DFD10BD01
:103C800010B50400FFF7F2FF642000F065FB21008F
:103C900002483431FEF73CFE200010BDE004002055
:103CA00010B50121262000F047FD0021262000F05C
:103CB00073FD10BD70B5051D04002800FEF714FB50
:103CC0002800FEF73FFC606470BD70B5051D040060
:103CD0002800FEF709FB2800FEF75CFC03F0AAFDB4
:103CE000A06470BD70B5051D04002800FEF7FCFA45
:103CF0002800FEF7A3FC03F09DFDE06470BD00000A
:103D000010B501210400132000F016FD002113203E
:103D100000F042FD642000F01FFB122000F0A6FC22
:103D200003F088FD0A4903F011FA05F061FB094A26
:103D3000094B04F0E5FC0022084B04F0E1FC05F01F
:103D4000A9FB00212064122000F0F6FC206C10BDBD
:103D500000F07F456666666666660A40000026409B
:103D600010B50400FFF782FF642000F0F5FA200090
:103D7000FFF7A0FF2000FFF7A8FF2000FFF7B2FF2A
:103D80002000FFF7BDFFC82000F0E6FA10BD0000DC
:103D900010B510210148FEF7DEFE10BDE004002042
:103DA000012110B50023FF240D4A494202618261BE
:103DB000026282620263821C016081638360D48735
:103DC0004164C1645232033113705370517493745F
:103DD000D37413750232C3660367137010BDC046F7
:103DE000FFC99A3B00207047F8B505000E00170088
:103DF0000024BC4208D02B68315D1B68280098471E
:103E0000002801D00134F4E72000F8BD704703001A
:103E1000FC33196ADA69914203D01B6AC018007E2C
:103E2000704701204042FBE70300FC33D8691B6A5E
:103E3000C01A01D50130FF3070470000F7B501937B
:103E4000FA238026002504009B008360124B760035
:103E500008330F00456029000092036032001830DB
:103E600005F0DFFC23002000FC332130DD6132004F
:103E70001D622900FF3005F0D4FC87239B00E31866
:103E80005D609D606B461B78276123756B461B79CF
:103E9000A57520006375FEBDC8D7000070B506008B
:103EA00018250C49006901F005F9306900F09CFF04
:103EB0002B000821307D084C4343E318595600F08D
:103EC000A1FC0821707D45436419615600F09AFCFD
:103ED00070BDC046A0860100ECD700008A230022F6
:103EE0009B00C1540C3BC3185A609A600123837530
:103EF0007047020010B5FC32536894680133DBB29E
:103F00009C4202D054680155536010BDF7B500249F
:103F10000500170001932000A24227D02B00FC339C
:103F2000DC611C620122286900F09CFFA0421CD0C9
:103F30002E001836286901F004F801340100300021
:103F4000FFF7D7FF2869A74206D000F06BFF0221D8
:103F5000286900F071FFEDE700F05BFF019B002B8B
:103F600003D00321286900F067FFE0B2FEBD10B561
:103F70000123FFF7CBFF10BD002210B5837D9342D4
:103F80000DD087239B00C4186368A4680133DBB29B
:103F9000A34204D02130FF30FFF7ABFF0122100015
:103FA00010BD0300FC3399685A68914206D09A68A4
:103FB000805C9A680132D2B29A6070470120404218
:103FC000FBE700228A2370B59B00827505000E0076
:103FD000C15C006900F046FF002806D10321286972
:103FE00000F02AFF0224200070BD872328009B00D8
:103FF000EA18536894682130FF301C1B01D5013446
:10400000FF34002C0ED02C69FFF7CBFFC1B220008B
:1040100000F055FF0028E8D10321286900F00CFFCB
:104020000324E0E7002EDED00321286900F004FF1E
:10403000D9E710B50121FFF7C4FF10BD10B5183046
:10404000FFF7AFFF10BD70B50400006900F057FF27
:10405000002814D0206900F060FF002810D02069EB
:1040600000F0E0FE0321206900F0E6FE8C239B00B7
:10407000E558002D39D10023FC34E361236270BD83
:10408000206900F054FF002809D0206900F04AFFA1
:10409000002804D0206900F04FFF0028DFD02069FD
:1040A00000F045FF002826D1206900F031FF0028EC
:1040B000E5D0206900F040FF002837D087239B001F
:1040C000E218536892689B1A01D50133FF33FF2130
:1040D000002B05D020002130FF30FFF762FFC1B276
:1040E000206900F0FEFEA075C9E7236820001B6967
:1040F0009847A847BFE7206900F094FE2069032194
:1041000000F09AFE206900F017FF0028B7D087233F
:1041100000229B00E3185A609A600123A3758B2349
:104120009B00E3589342AAD09847A8E72200FC32AC
:10413000D369126A0133DBB22069934206D100F0E1
:1041400068FE0321206900F077FE98E700F0F9FE91
:10415000010020001830FFF7CCFE206900F062FE5D
:10416000EFE7000010B50248FFF76DFF10BDC04635
:104170000805002010B51523142202490248FFF754
:104180005DFE10BDFC0D00200805002010B50248A2
:1041900001F021F910BDC0463C07002010B50248CF
:1041A00001F019F910BDC0467809002010B5024889
:1041B00001F011F910BDC046B40B0020F7B5012481
:1041C0000325194F1949380000F078FD184919489E
:1041D00000F074FD1849194800F070FD184919489D
:1041E00000F06CFD1849194800F068FD184E194997
:1041F000300000F063FD3900009523000194002297
:10420000154801F057F83100009501941E231F2234
:10421000124801F04FF8009501942C232D220549F6
:104220000F4801F047F8F7BDF00D002000080042EC
:10423000000C0042F40D002000100042F80D002098
:1042400000140042FC0D002000180042000E002067
:10425000040E0020001C00423C07002078090020CA
:10426000B40B0020FEE70000034B10B51B68002BC9
:1042700000D0984710BDC046080E002070B50F4909
:104280000F4CA14204D100F08DF800F033FBFEE7A3
:104290000C4D00238D42F6D0CA18E818A24205D36F
:1042A000094B8242EFD00949002204E00068043340
:1042B0001060F1E704C38B42FCD3E4E70000002068
:1042C0008C0200209CE100008C02002004140020DD
:1042D00010B500F064F8002801D100F055F810BDC9
:1042E000014B18607047C046080E0020014B18684B
:1042F0007047C0460C0E0020F7B5134801228446D3
:104300001249134C8E68636805689B0E1340019236
:1043100088686268019F920E3A4067463F68934200
:104320000ED1BD420CD186420AD35B19FA254868EA
:10433000AD00861B07486B437043000DC018FEBDDF
:104340003D0013000600E3E70C0E002010E000E043
:1043500000ED00E05555000070B5041E10D0FFF7C9
:10436000CBFF050000F01AF8FFF7C6FF054B401B16
:104370009842F7D9FA23013C9B00ED18002CF3D1A9
:1043800070BDC046E703000010B5034A136801334F
:10439000136000F05FFC10BD0C0E00207047002081
:1043A000704700001E2270B5464847494368934352
:1043B0001C3A1343436008238C6923438B61434CAD
:1043C000434B9C829C8A14439C82DC681442FCD040
:1043D0000124404A14701578254203D055786DB2F7
:1043E000002DF8DB01249460547864B2002CFBDBD0
:1043F000394C5460547864B2002CFBDB8224E40115
:104400005480547864B2002CFBDB02249C840E346C
:10441000DD682542FCD0314CDC621024DD68254289
:10442000FCD09D8C2E4C2C439C841024DD682542AE
:10443000FCD002249D8C80262C439C844024DD6883
:104440003542FCD0DD682542F9D01024DD682542D4
:10445000FCD000249460547864B2002CFBDB214C27
:104460005460547864B2002CFBDB1C6A1E4D2C4057
:1044700080251C621C6AAC431C62032393601B4BA7
:10448000536053785BB2002BFBDB0023FF240B72DD
:10449000174A4B728B72CB72164B1A60164B174A27
:1044A0001B6811689A065B01C90E2340520F120265
:1044B0000B431343124A138580234268134343601E
:1044C00070BDC04600400041000400400C060000E2
:1044D00000080040000C004001050100B905FF7D07
:1044E000040A000000070300FFFCFFFF03060100B1
:1044F000006CDC020000002024608000206080004E
:1045000000400042FA212D4B10B51868890002F0D6
:104510000DFA2B4B013898424FD82A492A4A486055
:10452000C020136A00061B021B0A03431362002308
:104530008B6007330B608021136A09061B021B0A7C
:104540000B431362FC22214B196A0A431A62FF22B1
:10455000196A12020A431A62A022196AD2020A4395
:104560001A621B4B1C005A7852B2002AFBDB194A14
:104570005A80194B1A00597EC9090129FBD0C8215C
:10458000890099800521D970537EDB09012BFBD06E
:10459000C02300205B011361907000F023F8637862
:1045A0005BB2002BFBDB0D4B0D4A6380D379DB093B
:1045B000012BFBD04123537010BDFEE7000000200B
:1045C000FFFFFF0010E000E000ED00E0000400400D
:1045D000000C00401E40000000400042214000004E
:1045E000004800421F4900B50B004A7ED209012A4B
:1045F000FBD001380A282FD802F08EF91B2E2E2E60
:104600002E2E062E2E2411001A6917490A400F215A
:104610001A615A788A43110001220A4310E01A698C
:1046200011490A400F211A615A788A431100032266
:10463000F3E71A690C490A400F211A615A788A4334
:104640005A7000BD1A6908490A400F211A615A7848
:104650008A4311000222E0E7F022196912050A4399
:10466000F3E7C04600400042FFFFFFF010B5040032
:10467000052800D80E340121200000F0C3F80E2CCC
:104680000DD1284B1900DA79D209012AFBD002207A
:104690001A7882431A70CB79DB09012BFBD02249AF
:1046A0000B004A7ED209012AFBD0182262431F4C1C
:1046B000A418207C1F240A692040A24302430A61F7
:1046C0005A7ED209012AFBD0022219780A431A70B5
:1046D0005A7ED209012AFBD00222197B0A431A739F
:1046E00001221A765A7ED209012AFBD00222197BB6
:1046F0000A431A731A7ED207FCD5588B80B25A7EB1
:10470000D209012AFBD002211A788A431A705A7EF4
:10471000D209012AFBD0064B1A68064B196800F033
:1047200067F810BD0048004200400042ECD700008E
:104730000800002004000020182310B5082443437B
:10474000134AD0180457013412D001249A564368F2
:104750009C4003290CD808000E49D2015218D318E6
:10476000403302F0D9F80210060B02211970546090
:1047700010BD0621197054609461F9E70621197083
:1047800054605461F4E7022119709460F0E7C04668
:10479000ECD70000004400411823F0B5082458432A
:1047A000114A13181C5701341BD0012635005F68CD
:1047B0008356BD400D4ADB019A18906805420BD123
:1047C0000C00601E8441D219403210783440033608
:1047D000A400B04320431070044A9B18002901D163
:1047E0005D61F0BD9D61FCE7ECD700000044004135
:1047F000914202D002D98A1AD0407047521A904092
:10480000FBE700001822424370B52D4E0300B2189A
:10481000127A52B2140001320ED0481C00240C2827
:104820000AD802F079F8071F1F1F1F1F1F1F1F0B39
:104830000B0B0B0001246442200070BD092905D137
:1048400000211800FFF778FF0024F5E70A2901D1BD
:104850000839F6E700240B29EED10A391800FFF7D2
:104860006BFFE9E7182201205343F218F35655680D
:10487000144ADB016C089B18C9B228401C19002897
:104880000ED00F203034227809010240114341221A
:10489000C9B25B192170403319780A431A70D3E703
:1048A00022000F26303214785B19B4432143117073
:1048B00041224033197804000A431A70BCE7C0460D
:1048C000ECD70000004400417047000010B5FDF730
:1048D00017FCFDF7C9FCFFF761FD034B002BF8D077
:1048E00000E000BFF5E7C0460000000010B5FFF78C
:1048F000EDFF000010B5FFF705FE04F051FFFFF7D4
:10490000E3FF0120FFF728FD054C200001F090F99E
:10491000200001F013FAFFF7E9FF002010BDC046A8
:104920002C0E0020F7B506000D000C008B1801932B
:10493000019B671B9C4207D0336821781B683000BD
:10494000984701340028F3D13800FEBD70B504004B
:1049500008000D0005F0A8FE2368020029005B682E
:104960002000984770BD10B50B1E02D0FFF7EEFF78
:104970000300180010BD10B5FFF7F5FF10BD10B50E
:10498000FFF7F1FF10BD10B503681B68984710BD15
:1049900010B50249FFF7DAFF10BDC046C4D60000CB
:1049A00070B50400FFF7DFFF05002000FFF7F0FF00
:1049B000401970BD70B50400FFF7D5FF0500200059
:1049C000FFF7E6FF401970BDF0B58BB06B461500E0
:1049D000002205330600DA770800012D00D80A25E9
:1049E00009AC290002F028F8CAB2130037330700D7
:1049F000DBB2092902D813003033DBB2013C23704B
:104A0000002FEED121003000FFF7ADFF0BB0F0BD5D
:104A1000F8B506000C00151E04D10368C9B21B6866
:104A20009847F8BD0A2A0CD100290BDA2D21FFF78F
:104A3000AAFF614207002A003000FFF7C5FF3818BF
:104A4000EFE7D2B221003000FFF7BEFFE9E770B513
:104A50000400FFF7DDFF05002000FFF799FF401974
:104A600070BD10B5002A04D10368C9B21B6898470D
:104A700010BDD2B2FFF7A8FFFAE710B5FFF7F1FFBC
:104A800010BD70B50400FFF7ECFF05002000FFF734
:104A90007FFF401970BD70B50500FFF7E2FF04000D
:104AA0002800FFF775FF201870BD0000F7B51E0045
:104AB00008AB1B783100019305003300100017008C
:104AC00004F0D8FB4B49002814D10122740064087B
:104AD0005242494B3800210004F0CCFB00280FD192
:104AE0000122454B52423800210002F0B5F800285F
:104AF00006D142492800FFF729FF04002000FEBD2F
:104B0000E0223F4B12063800310002F0AFF80028D7
:104B100001D03C49EEE7E0223B4B12063800310061
:104B200002F090F80028F4D1002200233800310070
:104B300002F088F8041E07D02D212800FFF723FF7C
:104B4000802304001B06F618002300202F49009341
:104B5000019B009A934208D02D4B002203F0C6F926
:104B6000009B0133DBB20093F2E733003A0002F01E
:104B7000A1FE0F00060002F015F90A2201900100C3
:104B80002800FFF721FF009B0419002BB6D00198E5
:104B900004F0FCFB02000B003000390004F022F8A6
:104BA00006000F0028001B49FFF7D0FE2418009BC9
:104BB000013BDBB20093FF2BA0D0154B002230004D
:104BC000390003F09DFD0F00060002F0EBF80A2209
:104BD000010001902800FFF7F7FE2418019804F067
:104BE000D5FB02000B003000390003F0FBFF06008C
:104BF0000F00DCE73CDC0000FFFFEF7F40DC000043
:104C0000FFFFEF4144DC0000FFFFEFC10000E03F89
:104C10000000244048DC000037B519000400069B62
:104C20002000DBB200930B00FFF740FF05002000DF
:104C3000FFF7AEFE40193EBD014B18607047C046FD
:104C40000C0000200122024B52421A607047C046FD
:104C50000C000020124A1368591C20D0013B13603D
:104C6000002B1CD172B60F4B01221900187D104287
:104C7000FCD02022188BFF3202431A830A4ADA61E1
:104C80000A4A1A8001230A7D1A42FCD0BFF34F8FD3
:104C9000074B084ADA60BFF34F8FC046FDE7704705
:104CA0000C000020004000410210000002A5FFFFA0
:104CB00000ED00E00400FA05100070470160704745
:104CC0009446F0B59E1E721E964162460568920794
:104CD0002F6836063A4332432A60072505AC24780C
:104CE0000068A4012940214342680024022B00D01F
:104CF0005C03114321434160F0BD30B5C02503681A
:104D0000AD031C6812052A402243C0240904A402F2
:104D100021401143196003685A6814435C6030BD38
:104D20000123026811680B43136003681A68D207F5
:104D3000FCD4DA69D207F9D47047022302681168FB
:104D40000B4313600268D3699B07FCD47047036868
:104D50001A7ED20702D41A7E9207FCD57047002231
:104D600003685A8370470368187E4007C00F704776
:104D70000368187EC0097047802302685B42117E79
:104D80000B43137670470368588B8007C00F70473A
:104D900002230268518B0B43538370470368187ECC
:104DA000C007C00F70470368188DC0B27047036812
:104DB0001A7ED207FCD589B20120198570470122DD
:104DC00003689A757047012203681A7570470123BA
:104DD000026811680B43136003681A68D207FCD499
:104DE000DA69D207F9D470470223026811680B43CD
:104DF00013600368DA699207FCD430215A8B8A4326
:104E0000110010220A435A830268D3695B07FCD45D
:104E1000704780230268DB02116851680B435360BE
:104E200070470000036803491A685A680A405A60CC
:104E30007047C046FFFFFBFF032230B503681140F7
:104E40001C68074D5A6809042A40E4061143640FA0
:104E50005960052C03D10268D3695B07FCD430BDCF
:104E6000FFFFFCFF490010B511430468CBB2618B12
:104E70008906890F012904D0618B8906890F0229CF
:104E8000F5D1616AC90AC902194361620368002A3F
:104E900008D11A7ED207FCD5588B4007C30F0120DA
:104EA00058400BE0187E8007C00FF5D11A7ED2075C
:104EB000F8D5C022596892020A435A6010BD0368AF
:104EC000283319700368187EC007C00F03D15A8BAE
:104ED000D207F8D57047588B4007C30F01205840C0
:104EE000F8E7036828331970036800201A7E520718
:104EF00004D5588B01234007C00F58407047036802
:104F00001868C006400F043843425841C0B2704789
:104F10000368187E4007C00F70470368187EC007FB
:104F2000C00F70470368588BC006C00F70470368F6
:104F3000187E8007C00F70470368588B0007C00FAA
:104F4000704703681A68D206520F052A02D11A7EEA
:104F50009207FCD528331878C0B270470368104A0E
:104F6000934213D00F4A934212D00F4A934211D06A
:104F70000E4A934210D00E4A93420FD001200D4AA0
:104F80004042934201D1063040B270470020FBE717
:104F90000120F9E70220F7E70320F5E70420F3E713
:104FA00000080042000C00420010004200140042C1
:104FB00000180042001C0042F8B5FFF7CFFF0028A0
:104FC0002CDBC3001C48FF22C01805230479C356FC
:104FD00003201840C0008240C021D2438140002BF2
:104FE0001DDB1F2501201D40C026A840134D760063
:104FF000A851C0269B089B005B19B6009F593A40F8
:105000001143995128603F2323408024E4011C432D
:105010000B4B5C805A7852B2002AFBDBF8BD0F20A4
:105020000340083B07489B089B001B18D8690240B7
:105030001143D961E7E7C0464CDC000000E100E025
:10504000000C004000ED00E0F8B504000F00160071
:105050001D00FFF7B1FF2000FFF762FE1C21BB001F
:105060000B4071072268090C0B43136084232268EC
:105070009375012F1AD11021012E00D008390C4B45
:1050800069431868C00001F051FC07222168024002
:105090008B895203DB04DB0C13438B8122680304EE
:1050A0009089DB0C400B400318439081F8BDC0464B
:1050B00000000020F8B504000F00FFF77DFF20007E
:1050C000FFF785FE1422236879001A600C4B2568CF
:1050D0001E68300001F02AFC0A490400300001F08B
:1050E00025FC7D23FA215843C90001F01FFCFF2352
:1050F000241AE868053C1C4098430443EC60F8BD62
:105100000000002040420F000120704710B50368E6
:10511000014A1B6A984710BD130400000300FC33CA
:10512000D9699A69914203D0DB69C018007D704744
:1051300001204042FBE710B504000069FFF7F0FDD5
:1051400022000023FC329361D36186229200A418CE
:105150006360A36010BDF0200140303948424841EF
:105160007047F0231B011940802306209B009942C1
:105170000AD00133FF330130994205D08023023831
:105180005B00994200D0002070470F2001400020B2
:10519000012903D00239481E8141481C7047000094
:1051A0008923F0B5182685B002919B000400C05CED
:1051B000330008214343324D1700EB185956FFF7CF
:1051C00021FB304B0821E05C33004343EB18595678
:1051D000FFF718FB2C4BE25C0393022A09D1113331
:1051E000E05CFF2805D008214643AE197156FFF751
:1051F00009FB8A26B600A05DFF2819D00121FFF720
:105200009BFA1822A35D21495A43AB56AD18DB0126
:1052100058188B21890060501D4901225B188C2190
:105220008900635069688A408D21890062501A6044
:105230000122029B11002069FFF706FF39002000C0
:10524000FFF78FFF390005002000FFF79EFF3900B0
:1052500006002000FFF77FFF33000090290020693F
:105260000122FFF72DFD0B4B2069E25C039BE15C03
:10527000FFF743FD2069FFF760FD05B0F0BDC046B4
:10528000ECD700002502000027020000184400416E
:105290001444004126020000802210B50400520090
:1052A000002104F0BEFA23000022FC335A602000E3
:1052B0009A6010BDF7B51D0008AB1B780400009381
:1052C00009AB1B781600019300234360FA239B006F
:1052D0008360114B0F00083303601430FFF7DCFFCD
:1052E00020001D30FF30FFF7D7FF89236A469B005F
:1052F0002761E654094B1278E554094B2000E2542B
:105300006A46084B1279E2548A22293BFF3B9200FD
:10531000A3541032A354FEBD7CDC00002502000023
:1053200026020000270200000300FC3359689A6837
:10533000914204DB5A689868801AFF307047986879
:105340005B68C01A0138F9E710B51D30FF30FFF770
:10535000EBFF10BD030070B5FC33D9699A690400F6
:1053600091421AD0DA698218157DDA690132D2B217
:10537000DA618A239B00E35CFF2B0CD02000143001
:10538000FFF7D2FF0A2806DD8C238D229B009200B6
:10539000E358A2581A60280070BD01256D42E8E765
:1053A0000300FC3358689B68C01A01D50130FF30F8
:1053B000704710B5040020001D30FF30FFF7F0FFEC
:1053C0000028F8D12069FFF7C2FC10BD10B51430D9
:1053D000FFF7E6FF10BD10B504000069FFF7D3FC2E
:1053E000002805D02069FFF7DEFC2069FFF7D0FC1C
:1053F0002069FFF7B8FC002820D02069FFF7D3FC14
:105400002200FC329369D1690133DBB28B4203D0B5
:1054100091696118087593618A239B00E35CFF2BF7
:105420000CD020001430FFF77FFF092806DC8B2307
:105430008D229B009200E358A2581A602069FFF762
:10544000ADFC00281AD020001D30FF30FFF7A8FF68
:10545000002822D086239B00E31899685A6891425D
:1054600018D08E219A684900A218515C9A680132BE
:10547000D2B29A60C9B22069FFF799FC2069FFF7A0
:1054800077FC002805D02069FFF776FC2069FFF73C
:1054900066FC10BD01214942ECE72069FFF793FC4F
:1054A000ECE7000070B5040000690D00FFF776FC22
:1054B00000283ED1FF2686239B00E3185A6899688E
:1054C000013232408A4223D1EFF31083DB070DD43F
:1054D0001E4B5B68DB05DB0DEDD0103B5BB2002B98
:1054E0000DDB9B08C0331A4A9B009B582069FFF7CD
:1054F00055FC0028DFD02000FFF76DFFDBE70F220F
:105500001340083B9B08134A9B009B181B68EDE760
:105510005A68013216409A68964205D08E215A6820
:105520004900A21855545E602069FFF748FC01202D
:1055300070BD20001D30FF30FFF732FF0028B9D1C9
:1055400029002069FFF733FCF1E7C04600ED00E0D9
:1055500000E100E01CED00E03F20704713B56B4612
:105560000268D9710733546819000122A04716BD9B
:1055700010B50221006900F005FD034B1B680133E3
:105580005A1E9341181810BD6000002010B5032169
:10559000006900F00DFD10BD10B50321006900F099
:1055A000D5FC10BD10B5054C23685A1C04D1036806
:1055B0005B69984703002060180010BD6000002060
:1055C000074B0200186810B5411C03D0012252425B
:1055D0001A6010BD0221106900F0D4FDF9E7C04641
:1055E0006000002010B51300094A0400D079C0B251
:1055F000002805D1627E002A02D00123636006E004
:105600000A002069032100F0CBFD0028F5D010BD71
:105610001400002010B503784222023303700249BF
:10562000024800F069FE10BD1C0000202C0E002076
:1056300010B50178020043780020A12908D1212B60
:1056400005D107221649174800F056FE012010BD6B
:105650002129FCD1202B13D107221149114800F038
:10566000EBFC96220E4BD200196891420ED1012418
:10567000D87904400AD1FA20FFF7DEFA0020E6E7E5
:10568000222B06D19278064BDA71EAE7FFF7DAFAB5
:10569000F4E7232BDBD15288034B1A60D7E7C046CF
:1056A000140000202C0E002010000020FA220021FF
:1056B000054B92009A60054A596008321A60044A04
:1056C00019761A617047C046100E0020B0DC000049
:1056D0002C0E00207047704770B50F26CB1D013986
:1056E00002003240D5B22C0000093034092A00DD16
:1056F00007341C70013B8B42F2D170BDA02110B564
:105700000400490001F004F9200010BDF8B5032998
:1057100008D1304B8000C058002802D003689B6835
:105720009847F8BD822919D1C3B22B4D5A01AA1846
:1057300091692A4C80010C40C02189052143916167
:105740002749083340187021506128685B011A5CB2
:105750008A43110030220A431A54E2E70029E0D1BB
:10576000C026C1B21C4C4B01E3189A681B4DB6050C
:105770002A4032439A601B4A800182185A600A000C
:105780000727246808325201115DB9430F00012137
:10579000394311559F6912493D4040182E439E617F
:1057A00058617020115D814308001021014311559B
:1057B00099680D48A2180840802149030143996067
:1057C0009968890B89039960402311790B43137100
:1057D000A7E7C046300E0020E4120020FFFFFF8F35
:1057E000580E002018100020FF3F00F0EFF3108348
:1057F00003600123436072B670470368002B02D137
:1058000062B6BFF36F8F7047F7B50500FC35EB69E3
:105810000600002B18D196277F00C45D6846FFF76D
:10582000E5FF019BE4B2013B02D3F45DE4B2FAE789
:1058300068460193FFF7E1FF002C01D10020FEBD77
:10584000E86AAB6AC01AFAE76846FFF7CFFF9E2204
:105850000024019B5200013B02D3B45CE4B2FAE79E
:1058600068460193FFF7C9FF002CE7D0E86BAB6BEC
:10587000E8E7000030B54468FC3043698069DBB27A
:105880005A01A2189168094D80042940000901437A
:10589000916091680833890B8903916022685B01EC
:1058A000D318402219790A431A7130BDFF3F00F026
:1058B000F7B50500FF21FC356A6943680A401B689B
:1058C000083252019A18D3790400DB0754D5012617
:1058D000D6716B6962680B405B01D318286A9A68BD
:1058E0009204920C002822D1EA62EA6A002A40D08F
:1058F0006A6B2E6268465A60FFF778FF9E273E214A
:10590000019B7F00013BFF315A1C2ED09622520092
:10591000A654E25D581ED2B2002A05D066546846ED
:105920000193FFF76AFFF7BD62540300ECE7EA63F7
:10593000EA6B002A1DD000222A626A6A68465A6011
:10594000FFF754FF96273E21019B7F00013BFF316B
:105950005A1C0AD09E225200A654E25D581ED2B2B2
:10596000002ADBD162540300F2E768460193FFF797
:1059700044FF2000FFF77EFF63681A686B69DBB2A3
:1059800008335B01D3187F22DA71CCE7F7B5070043
:1059900068463C00FFF72AFF0026FF22019BFC34EB
:1059A000013B0DD3E0682169884204DBE668206989
:1059B000961B3618F4E72669E168761A013EEFE790
:1059C00068460193FFF719FFE3696846002B52D13F
:1059D000FFF70CFF9621019B4900013B5A1C0CD09C
:1059E0007D5C5A1EEDB2002D05D168460193FFF78C
:1059F00004FF2800FEBD1300F0E768460193002570
:105A0000FFF7FBFEFF21A36AB54214D0E26A9A4277
:105A100011D95A1CA262626AD3181878E368226905
:105A20000133C0B20B40934203D0E268BA1810723F
:105A3000E3600135E7E7E26A9A42DAD10023A36224
:105A40000133E36168469624FFF7D0FE64003E22EE
:105A50000021019BFF32013B581CC6D03955B85C70
:105A60005E1E002805D0B95438000193FFF702FFED
:105A7000EDE73300F0E7FFF7B9FE9E21019B4900F7
:105A8000013B5A1C06D07D5C5A1EEDB2002DACD0F5
:105A90001300F6E7684601930025FFF7AEFEFF21ED
:105AA000A36BB54202D0E26B9A421DD8E26B9A42D8
:105AB0009FD100236846A363E3619E24FFF796FE0F
:105AC00064003E220021019BFF32013B581C00D1A3
:105AD0008BE73955B85C5E1E002817D0B9543800E2
:105AE0000193FFF7C7FEECE75A1CA263626BD31861
:105AF0001878E36822690133C0B20B40934203D0A7
:105B0000E268BA181072E3600135C9E73300DDE7D7
:105B100010B50400FFF73AFF2300FC331969DA6877
:105B2000914203D01B69E418207A10BD0120404245
:105B3000FBE710B50400FC34FFF728FFE068236999
:105B4000C01A01D50130FF3010BDF0B585B001920B
:105B500000910500FFF71AFF02A8FFF747FE01209A
:105B60000024FF26039B40425A1E531C1FD02B00CB
:105B7000FC3301998C4218D2D9681F69C91B01D521
:105B80000131FF31002910D01969DF688C4601000E
:105B9000BC4506D019691F69691801373740097A71
:105BA0001F61009F39550134E3E7013ADDE702A8A0
:105BB0000392FFF722FE200005B0F0BD37B56B461B
:105BC000DC1D00230D0020002370FFF723FD2B6850
:105BD0001818286000F042FE210000F0FBFD2B6841
:105BE0001818286020783EBD02220B0010B59343A0
:105BF0000C00012B0BD10D4B08341B6864011C19E0
:105C0000802321795B420B432371E27110BD00F0C8
:105C100025FE210000F012FE0028F7D0034B0834C7
:105C20001B6864011C197F23E371EFE7E412002075
:105C300070B50024364B012105001A201C70FEF7B8
:105C40007BFD01211A20FEF7A7FD324B012119200F
:105C50001C70FEF771FD01211920FEF79DFD202328
:105C60002D4A0F20D1690B43D36101222B490B78B8
:105C700013430B702A4B19788143197006211C7845
:105C80002143197027490C7822430A701A78024080
:105C90001A70602219780A431A70234B234A5A80DB
:105CA0005A78D209FCD12248FEF71AFB214C7F26F4
:105CB000200000F0E5FD200000F0FAFD0C20082394
:105CC0002168CA7882431343CB7003212268D378BA
:105CD0008B4301390B43D370226813783340137020
:105CE000042322681678334313702268C124138971
:105CF000A40083431048138103591B021B0A03515C
:105D00008023036013781943012311702B7070BD39
:105D10004D0E00204C0E002000040040584400416D
:105D20003C44004159440041000C00400640000042
:105D300069670000E412002000E100E0007800281C
:105D400010D00121084B1B681A898A431A81082246
:105D5000198B0A431A830422198B0A431A830022DF
:105D6000024B1A607047C046E4120020DC1200208B
:105D700010B50F4A93699B0B9B0393611368022232
:105D8000FF331A729879823A02439A711A7A92070B
:105D9000FCD57F24074A2140937A0800A3431900C9
:105DA000802301439172917A5B420B43937210BD41
:105DB000E41200200050004110B50B790C00002BBC
:105DC0000CD10800FFF734FC002801D0012010BDE1
:105DD000094A93699B0B9B039361F7E700F03EFD33
:105DE000210000F01BFD0028F0D1034A93699B0BB2
:105DF0009B039361EBE7C046E4120020F8B50D0069
:105E0000832A19D1CBB2434C5A01A2189169424856
:105E1000AD010840C0218905014391613F492068D7
:105E20006D187021083355615B011A5C8A431100BB
:105E300040220A431A54F8BD022A65D1384B8A0021
:105E4000D058002802D003689B699847A0204000E2
:105E500000F09AFC80270600324B7F0003602D4B38
:105E6000002143603A00083003F0DBFC3400962246
:105E70000023FC345200E360A36223616561E361A7
:105E8000A7612362E362B3541032A363E363B354A4
:105E90003E223800FF32B35403F0A6FC60623800A3
:105EA00003F0A2FC2B006063FF201A4903405A0153
:105EB0008A189168184F08330F40C021890539436B
:105EC00007279160134A5B011168AD005A5CBA4321
:105ED000170003223A435A5461697368014049012B
:105EE0005918636A4B60736862691B68024052010B
:105EF0009B1801221B18997A30000A439A72FFF707
:105F0000B9FC074BEE5096E711002800FFF7FEFBA7
:105F100091E7C046E4120020FFFFFF8F580E0020DB
:105F2000300E0020E0DC000070B505000124064BB7
:105F3000A200D258002A06D0210028000134FFF721
:105F40005DFF0A2CF3D170BD640000200B4BCAB278
:105F50000B488901C9185301C3185961996908325E
:105F6000890B89039961036852019A180223D3713E
:105F70005179823B0B4353717047C046580E002045
:105F8000E4120020084B8A00D05810B5002803D036
:105F90000368DB68984710BDC9B2044B4901591822
:105FA00088688004800CF6E7300E0020E4120020A0
:105FB00010B50C00FFF7E6FF00280CD0064BE4B24A
:105FC0001B68083464011C19802362795B42134307
:105FD00063710223E37110BDE412002070B5CBB2EF
:105FE000124A13485C0189018918021951609168AD
:105FF000104D08330D4080218902294340259160CE
:106000009168890B8903916001685A018A18167991
:106010003543157195796D06FCD55B01C918CB79AF
:10602000DB07FCD500198068C0B270BD18100020D5
:10603000E4120020FF3F00F070B5140040220B4B2B
:106040000D001B68FF3359790A435A710021FFF78D
:10605000C5FFA04200D9200000230549A34203D078
:10606000CA5CEA540133F9E770BDC046E41200206F
:106070001810002010B5C9B20B48490142189368A6
:106080009B049B0C3F2B0BD99468403B9B04A40BB7
:106090009B0CA4032343936041188868C0B210BDD1
:1060A00093689B0B9B03F6E7E4120020F0B51C00FD
:1060B0002F4B85B01B6806000D000192002B54D0B9
:1060C0002C4F3978C9B2002902D11920FEF764FBA0
:1060D00064233B70284BAA00D058002808D00368DE
:1060E00022005B68019998470400200005B0F0BDCC
:1060F00029003000FFF746FF844204D92900300010
:10610000FFF740FF040029003000FFF7B3FF012133
:10611000EBB21A4F03935B010293029A3B6801981A
:106120009B18FF335A7A0A435A72154BA901C918B2
:10613000220003F06DFB002CD7D029003000FFF7C0
:1061400021FF0028D1D14021039B3A6808335B012D
:10615000D3181879014319710121D971029BD31801
:10616000FF339A7A0A439A72BFE701246442BCE77C
:10617000DC1200204C0E0020300E0020E412002023
:106180001810002013B56B46DC1D22000123FFF719
:106190008DFF012801D1207816BD01204042FBE788
:1061A000F0B51E003A4B85B01B680F000192002B22
:1061B0003FD08023DB019E423BD8364C2178C9B2C8
:1061C000002902D11A20FEF7E7FA64230025237084
:1061D000314BBA01D3180293002E2CD02F4B1B68E1
:1061E0000393FF233B401C0000930834039B64018E
:1061F0001C19A379DB0921D0294B2A49186800F022
:1062000095FB294B1721584300F090FB274BE2796F
:10621000920713D4DA5D002A01D10138F7D20122A6
:10622000DA55009B5A011D4B9B189A69920B9203F9
:106230009A6101256D42280005B0F0BD00221B4B7C
:106240003400DA55402E00D94024220001990298EA
:1062500003F0DEFA009BA1045A01104B890C9B1835
:10626000029A2D195A619A69361B920B92030A43BE
:106270009A61009B039A08335B01D3180222DA71FA
:106280005979823A0A435A71019B1B190193A3E77A
:10629000DC1200204D0E0020580E0020E4120020D9
:1062A0000000002040420F00701101004F0E00203E
:1062B00070B50D001C000D4BAE01F618110030003A
:1062C000220003F0A5FAEDB209496D014D196E6186
:1062D000AB69084A20001340AB61AB69A2049B0B79
:1062E000920C9B031343AB6170BDC046580E002057
:1062F000E4120020FF3F00F0F7B5104B01901B782F
:106300000F001500002B0CD10D4B16001C78002C33
:1063100009D00C4E0C4834882018641903F078FA20
:1063200034802800FEBD002EFBD03A193300002136
:106330000198FFF7BDFF2418361AF4E7D8110020A2
:10634000D9120020DA120020D9110020F8B500205F
:1063500000AF0E001500012A27D9D31D6A46DB08BD
:10636000DB00D31A9D46080004F09EF96C46032317
:10637000022200210130400020706370AA420DD239
:10638000307800280AD0531CDBB20136A0549D425D
:1063900003D00232E154D2B2F0E72A0021000448CF
:1063A000FFF7AAFF431E9841C0B2BD46F8BDC046E4
:1063B0002C0E0020F0B50024012685B0184B0F00EC
:1063C00069461E7005000094FFF7F8FB154B01A904
:1063D0000B806A3BFF3BCB716E3B0B72009B8C7159
:1063E00009334B800E4B4E7108711C703A00092F17
:1063F0000FD00D4F09223E700C4E280000943480BF
:10640000FFF77AFF69462800FFF7D8FB3288084972
:106410003C702800FFF770FF012005B0F0BDC046BA
:10642000D811002009020000D9120020DA12002041
:10643000D9110020F0B5CF7893B005000E00022FDF
:1064400009D1C9882D48FFF7B5FF441EA041C4B249
:10645000200013B0F0BD00F001FA310000F0CEF9D9
:10646000002803D0C417241AE40FF1E7012F0FD13D
:10647000F288082A0AD02249112A13D8D2B2002A57
:1064800010D02800FFF738FF0124E1E71D49F5E7A8
:106490000400032FDCD1B378002B05D1F2881A4910
:1064A000032AEBD90A78ECE7022B06D1B279174917
:1064B0002800FFF74BFF0400CAE7012B02D1B27995
:1064C0001349F5E7032BC3D1124B01A91868FFF755
:1064D00003F9114B03A91868FFF7FEF80F4B05A944
:1064E0001868FFF7F9F80E4B07A91868FFF7F4F8DA
:1064F0006B460533DC77B27901A9D9E72C0E002071
:1065000023DD000035DD000012DD000000DD0000AD
:1065100016DD00000CA0800040A0800044A0800098
:1065200048A0800037B5040048780D000B2810D82B
:1065300000F0F2F9061B0F2B0F40456D494C6669C0
:10654000097801AA002906D1022311802000FFF753
:10655000AFFE01203EBD002313802E4B1B78012B84
:1065600000D1137002230021F0E78A780023012A6A
:1065700003D101AA1380284BF0E7264A1370274A5B
:1065800093699B0B9B039361E3E78D78012D06D103
:106590000021214B01AA1D7011702B00D6E70120AC
:1065A000002DD7D11B4B1D4A187093699B0B9B0381
:1065B0009361CFE789782000FFF7DAFBC9E7200075
:1065C000FFF738FFC6E70123154ACCE70B78002018
:1065D000DB06BFD12000FFF7A7FC2A20AA78104BCA
:1065E000FF301A6002230D4A11680C5C23434A24D1
:1065F0000B54FF340B5D2938FF3803430B55D4E7A8
:106600000123084AAFE78A78064B1A60B7E70020F3
:10661000A0E7C0464E0E0020560E0020E4120020D7
:10662000DC120020E0120020474BF7B51C78060072
:10663000002C7CD1454D2B689B8B1B070ED5210070
:106640002000FFF763F82A6810231100FF31887AD1
:1066500003438B723E4B1C60082393832B689A8BF9
:1066600052071FD504229A833A4A1378002B0AD086
:106670001378013BDBB213701378002B03D1012197
:106680001A20FEF789F8344A1378002B0AD01378C1
:10669000013BDBB213701378002B03D101211920C9
:1066A000FEF77AF82B68FF331A7AD2061ED510222D
:1066B0001A72597930320A435A71602327493000DF
:1066C0000A781A4234D1FFF72DFF2B68FF330028D8
:1066D00031D08022997952420A439A711A7A52062D
:1066E00004D540221A72597A0A435A7201242700AB
:1066F0002B681B8CA343DBB20193019B23413B42DC
:1067000012D023002A6808335B01D318DA79D20744
:1067100002D4DB799B0707D5114BA200D058002883
:106720000DD003681B6898470134082CE5D1F7BDEC
:10673000FFF742FBC9E720210A4A9171CEE7E1B297
:106740003000FFF751FAEFE7D9120020E4120020E1
:10675000DC1200204D0E00204C0E002018100020EE
:10676000300E0020FF50004110B50248FFF75CFFDB
:1067700010BDC0462C0E0020014B024A1A60704723
:10678000E41200200050004110B503F02DF810BDB8
:1067900010B503F033F810BD10B50200EFF310810F
:1067A00072B60A4B1868002801D1094818601868A9
:1067B0008218EFF30884A24204D21A60002900D1A3
:1067C00062B610BD01204042F8E7C046E813002041
:1067D0000414002070B50E0000254468002C0BD076
:1067E000236831005B6820009847002802DB2D18E1
:1067F000E468F3E701256D42280070BD70B50D0017
:106800004468002C08D0236829009B682000984722
:10681000002802D1E468F4E7200070BD70B50D00D7
:106820004468002C08D0236829001B682000984782
:10683000002802D1E468F4E7200070BD70B50D00B7
:106840004468002C08D023682900DB6820009847A2
:10685000002802D1E468F4E7200070BD0121054A58
:1068600010B5136804480B4003D1044C4360048006
:10687000116010BDEC130020F01300200204000092
:1068800070B50400012304CC0500117820000B43EF
:10689000137080220021520002F0C3FF2B689A7807
:1068A000D207FCD49A789207F9D45C6270BD0000DC
:1068B0001F22144BF0B51B68590B9C0C9B01114017
:1068C00014405B0F914200D105211F2C00D1023CE6
:1068D000072B00D1043B02688F01158D0A491F2642
:1068E00029403943118505683440298D0A00B24397
:1068F00022432A8500681903028D044B13400B4381
:106900000385F0BD246080003FF8FFFFFF8FFFFF8D
:1069100010B5FFF73DFF10BD02B4714649084900AC
:10692000095C49008E4402BC7047C04600224308FF
:106930008B4274D303098B425FD3030A8B4244D347
:10694000030B8B4228D3030C8B420DD3FF22090289
:1069500012BA030C8B4202D31212090265D0030B48
:106960008B4219D300E0090AC30B8B4201D3CB033E
:10697000C01A5241830B8B4201D38B03C01A524180
:10698000430B8B4201D34B03C01A5241030B8B4282
:1069900001D30B03C01A5241C30A8B4201D3CB026D
:1069A000C01A5241830A8B4201D38B02C01A524152
:1069B000430A8B4201D34B02C01A5241030A8B4255
:1069C00001D30B02C01A5241CDD2C3098B4201D36D
:1069D000CB01C01A524183098B4201D38B01C01AEB
:1069E000524143098B4201D34B01C01A5241030962
:1069F0008B4201D30B01C01A5241C3088B4201D311
:106A0000CB00C01A524183088B4201D38B00C01ABD
:106A1000524143088B4201D34B00C01A5241411AE4
:106A200000D20146524110467047FFE701B50020F1
:106A300000F0F0F802BDC0460029F7D076E77047B5
:106A400003460B437FD4002243088B4274D30309CF
:106A50008B425FD3030A8B4244D3030B8B4228D370
:106A6000030C8B420DD3FF22090212BA030C8B4296
:106A700002D31212090265D0030B8B4219D300E036
:106A8000090AC30B8B4201D3CB03C01A5241830BBB
:106A90008B4201D38B03C01A5241430B8B4201D36B
:106AA0004B03C01A5241030B8B4201D30B03C01A94
:106AB0005241C30A8B4201D3CB02C01A5241830A0E
:106AC0008B4201D38B02C01A5241430A8B4201D33D
:106AD0004B02C01A5241030A8B4201D30B02C01A67
:106AE0005241CDD2C3098B4201D3CB01C01A5241CE
:106AF00083098B4201D38B01C01A524143098B4257
:106B000001D34B01C01A524103098B4201D30B013F
:106B1000C01A5241C3088B4201D3CB00C01A524164
:106B200083088B4201D38B00C01A524143088B4229
:106B300001D34B00C01A5241411A00D201465241C2
:106B4000104670475DE0CA0F00D04942031000D3E1
:106B50004042534000229C4603098B422DD3030A36
:106B60008B4212D3FC22890112BA030A8B420CD346
:106B7000890192118B4208D3890192118B4204D36F
:106B800089013AD0921100E08909C3098B4201D3EF
:106B9000CB01C01A524183098B4201D38B01C01A29
:106BA000524143098B4201D34B01C01A52410309A0
:106BB0008B4201D30B01C01A5241C3088B4201D34F
:106BC000CB00C01A524183088B4201D38B00C01AFC
:106BD0005241D9D243088B4201D34B00C01A5241D3
:106BE000411A00D20146634652415B10104601D360
:106BF0004042002B00D54942704763465B1000D3EA
:106C0000404201B5002000F005F802BD0029F8D08F
:106C100016E770477047C0468446101C62468C4693
:106C2000191C634600E0C0461FB501F001FD0028B5
:106C300001D40021C8421FBD10B501F059FC4042EB
:106C4000013010BD10B501F0F3FC002801DB00207D
:106C500010BD012010BDC04610B501F0E9FC0028B0
:106C600001DD002010BD012010BDC04610B501F0AF
:106C70007BFC002801DC002010BD012010BDC046B7
:106C800010B501F071FC002801DA002010BD0120D0
:106C900010BDC0468446081C6146FFE71FB500F0E2
:106CA000DDFB002801D40021C8421FBD10B500F053
:106CB0005FFB4042013010BD10B500F0CFFB002853
:106CC00001DB002010BD012010BDC04610B500F052
:106CD000C5FB002801DD002010BD012010BDC0460D
:106CE00010B500F06DFB002801DC002010BD012074
:106CF00010BDC04610B500F063FB002801DA00208B
:106D000010BD012010BDC046002B15D1002A13D1A3
:106D1000002906DB01DC002806D00020C043410822
:106D200002E080210906002007B4024801A14018B2
:106D3000029003BDE1FEFFFF03B4684601B502986F
:106D400000F04EF8019B9E4602B00CBC7047C04656
:106D5000F0B5CE46474615042D0C2E0080B507042D
:106D6000140C3F0C9946030C7E435D436743634319
:106D70007F19340CE4199C46A54203D980235B0299
:106D80009846C4444B4643435143250C360465445E
:106D9000360C2404A4195B19591820000CBC904629
:106DA0009946F0BD70B500220C4B04000D00FFF7B2
:106DB00067FF002804D12000290002F077FA70BD97
:106DC000064B00222000290001F00CFF02F06EFAB1
:106DD00080231B069C466044F1E7C0460000E0416A
:106DE000F0B583B016001F000090019102F0F4FB93
:106DF00004000D0002000B0030003900FFF7A8FF6F
:106E0000009A019B121A8B41089920000A604B607E
:106E1000290003B0F0BDC046F8B54746CE46430250
:106E20005B0A4400C20F9C464800DD004B02240E62
:106E30005B0A000E80B5984626009146C90FDB001C
:106E4000271A8A4229D0002F15DD00284AD1002BAD
:106E500000D095E0ED08FF2C00D188E06B025B0AC2
:106E6000E6B25B02F605580A3043D20710430CBC69
:106E700090469946F8BD002F00D087E0601CC0B254
:106E8000012800DCB6E0EE1A720100D5C5E0002E44
:106E90003DD1002200260023E3E7002F00DC96E02E
:106EA00000285DD0FF2C60D08022D20413431B2F1A
:106EB00000DDECE02022D21B18009340F8405A1E5F
:106EC00093410343ED186B017BD50134FF2C00D1B6
:106ED000B7E0012207262A406B089A4D1D40154352
:106EE0002E4029E0FF2CB5D08022D20413431B2F63
:106EF00000DDB2E02022D21B19009340F9405A1E57
:106F000093410B43ED1A6B015BD5AD01AE09300027
:106F100002F044FB05388640844265DC041B3300E4
:106F200020200134E340041BA640751EAE413343CC
:106F300007261D0000241E4001224B461A40002E49
:106F400004D00F232B40042B00D004356B0100D458
:106F500080E70134E6B2FF2C2FD1FF26002380E723
:106F6000002B52D1FF2C00D074E70A00ED08002D51
:106F7000F3D08023DB032B435B025B0AFF2670E721
:106F8000013F002FBED0FF2CB1D163E7002C47D0CA
:106F9000FF2869D08024E4047A4225431B2A00DDBF
:106FA000C5E02C002026D440B21A95406A1E9541B7
:106FB00025435D1B04008946A5E7AB015B0A50E74A
:106FC000002401224B461A406B07BAD142E7002F3A
:106FD0003BD10134E0B201284ADDFF2CBDD00726A9
:106FE000ED186D082E40A7E70723574D241A3540AA
:106FF0001E40A1E7002C1BD1002D6ED1002B00D12B
:107000009AE00A001D003C0024E7013F002F00D158
:1070100058E7FF2C00D04AE7A7E75E1B894676E7D2
:10702000002D1CD10A00FF281FD004001D0011E70D
:10703000002D5DD1002B17D180230022DB03FF261A
:107040000FE70A00FF2600230BE7002C21D1002DBB
:1070500066D1FF28E9D11D0087E7012352E77A1C9A
:10706000A7D0FA43FF2899D10A001D00FF24F1E6BA
:10707000002E21D1002D4FD0002B4CD0ED186B01EC
:107080009ED5314B07362E4001241D4054E7012385
:1070900018E7FF28DFD08024E4047F4225431B2F1C
:1070A0004DDC2026F61B2C00B540FC406A1E9541A5
:1070B0002543ED18040006E7002DCCD0002B00D1AD
:1070C00053E780216046C903084203D04046084286
:1070D00000D11D000121114047E7002B00D1B9E686
:1070E000EA1A500125D507265D1B2E40894623E765
:1070F000FF24002B00D1ADE680226046D20310426F
:1071000004D04046104201D11D00894601224B4661
:10711000FF241A409EE62B00DD080A0000249DE6AD
:107120007A1CC6D0FF43FF28B9D11D001DE70125F9
:107130003FE7151E00D044E70022002391E6012519
:10714000B7E7C046FFFFFF7DFFFFFFFBF8B55746DF
:107150004E464546DE464402E0B546008846640A8F
:10716000360EC70F002E63D0FF2E24D08023E400FC
:10717000DB041C43002399469B467F3E4346424620
:107180005D02D20F5B006D0A1B0E9046924665D0E1
:10719000FF2B55D080220021ED00D2047F3B154308
:1071A000F61A43464A467B400F2A00D98DE06D48C7
:1071B000920082589746002C54D108239946063BEA
:1071C000FF269B46DAE70025534602291BD00329F8
:1071D00000D1BFE0012928D030007F30002820DD19
:1071E0006A0704D00F222A40042A00D004352A015D
:1071F00003D530005C4A80301540FE2803DCAC012A
:10720000640AC2B201E0FF2200246402D205600ACF
:10721000DB07104318433CBC90469946A246AB4658
:10722000F8BD0122101A1B287CDD00220024ECE7A7
:10723000002C1DD104239946033B00269B469DE765
:10724000FF3E002D20D1022143464A467B400A439F
:107250000F2AD8D84548920082589746002D19D158
:107260000121F1E70C239946093BFF269B4685E760
:10727000200002F093F97626431F9C4000237642BB
:10728000361A99469B4679E74A4603231A439146A4
:10729000032186E7280002F081F9431F36189D403C
:1072A000763600217DE780240023E403FF22ACE74B
:1072B00000258023DB031C4228D01D4226D12B430E
:1072C0005C02640A4346FF229FE762016C01A2420E
:1072D00024D21B210025013E012710006D00520021
:1072E000002801DB944201D8121B3D4301390029DB
:1072F000F3D11400621E944125436DE7BA46594606
:1073000025005346022900D061E77CE78023DB0398
:107310001C436402640A3B00FF2276E7121B1A2119
:107320000125D9E79E362A00B5402C00C240651ED3
:10733000AC411443620704D00F222240042A00D03B
:107340000434620103D4A401640A00225DE701222F
:1073500000245AE78024E4032C436402640AFF22D9
:1073600053E7C04648DD0000FFFFFFF788DD00005F
:1073700070B542004E024C0045026D0A120EC30F5A
:10738000760A240EC90FFF2A0FD0FF2C11D001203E
:10739000A24200D070BDB542FCD18B420DD0002A74
:1073A000F8D12800451EA841F4E70120002DF1D1B5
:1073B000EBE70120002EEDD1E9E70020EAE7C04627
:1073C00070B54A004E02450244006D0A240EC30FF8
:1073D000760A120EC90FFF2C15D0FF2A0ED0002CF2
:1073E00015D1002A01D1002E1CD0002D14D08B42C3
:1073F00027D00220013B1840013870BD002EEED08E
:1074000002204042F9E7002DFAD1FF2A0ED0002ACF
:107410000ED1002EEDD00BE0012301399943080075
:107420000130EAE70020002DE7D0E2E7002EE7D1A7
:107430008B42DED1944205DD0221581E08400138FE
:10744000DBE70024A24204DCB542D2D80020B542DA
:10745000D3D2581E012398430130CEE730B5420005
:1074600044024D02C30F4800640A120E6D0A000E5A
:10747000C90FFF2A12D0FF280CD0002A12D10028F1
:1074800019D1002D17D1002C2BD00220013B184020
:10749000013826E0002DF0D0022022E0002CFBD1A4
:1074A000FF281FD000281FD1002D1DD10220013B35
:1074B0001840013815E0002C0ED08B42E5D1002297
:1074C000904204DCAC42E0D80020AC4209D2581E05
:1074D00001239843013004E0012301399943080056
:1074E000013030BD002DD7D18B42CED18242E7DDB5
:1074F0000221581E08400138F3E7C046F0B54E4659
:1075000057464546DE46E0B543025B0A450083B078
:107510000F1C99462D0EC60F002D57D0FF2D24D0DD
:107520008020DB00C0041843002381469A469B4616
:107530007F3D7C027A00FB0F640A120E984623D02E
:10754000FF2A4BD0E30080240020E4047F3A1C4350
:10755000AD186B1C47460193534677403A000F2BFA
:1075600048D87D499B00CB589F46002B00D085E032
:1075700008339A46063B9B467C027A00FB0FFF25A8
:10758000640A120E9846DBD1002C00D090E05246DF
:1075900001231A4392460120DBE74C465846170068
:1075A000022824D0032800D1CFE0002200230128A4
:1075B0004DD15802D205400AFF071043384303B0AB
:1075C0003CBC90469946A246AB46F0BD002B5BD131
:1075D00004239A46033B00259B46AAE7FF35002C6F
:1075E00060D1524602231A4392460220B1E7FF229D
:1075F0000023DEE74B461B0C9C464B462604360C0C
:10760000180461463300220C6446000C43434E4389
:107610005043544380191A0C1218964203D9802102
:1076200049028C4664441B041B0C1004C0188301DF
:107630005E1EB341800E1843130C1B199B010343BC
:107640001C00230179D5012362081C401443019AD0
:107650007F32002A4DDD630704D00F232340042B23
:1076600000D00434230103D53C4B019A1C408032E6
:10767000FE2ABCDCA3015B0AD2B29AE70C239A462D
:10768000093BFF259B4654E7180001F087FF4A4657
:10769000431F76259A4000236D4291462D1A9A4643
:1076A0009B4646E7524603231A439246032050E77F
:1076B000200001F073FF431F2D1A9C40763D0020EF
:1076C00047E780230027DB03FF2272E7424666E795
:1076D0004C463200584662E780234A46DB031A4292
:1076E00022D01C4220D123435B025B0A4746FF2283
:1076F0005FE701239A1A1B2A21DC23000199D3405A
:107700009E318C401A0023005C1EA34113435A078C
:1077100004D00F221A40042A00D004335A0111D495
:107720009B015B0A002244E780234A46DB031343A4
:107730005B025B0A3700FF223BE7019587E70022E7
:10774000002336E70122002333E78023DB032343B2
:107750005B025B0AFF222CE7C8DD0000FFFFFFF79A
:1077600041024200C30F490A120E00207E2A0DD9A1
:107770009D2A0CD8802000040143952A0ADC96201B
:10778000821AD1404842002B00D108007047034ABA
:107790009818FBE7963A9140F4E7C046FFFFFF7F59
:1077A00070B500283DD0C317C5185D40C40F280030
:1077B00001F0F4FE9E22121A962A07DCD2B20828A3
:1077C00033DD083885406802400A23E0992A0BDD42
:1077D000052329001B1AD94003001B339D402B00B1
:1077E0005D1EAB4119430D00052801DD431F9D407F
:1077F0002B000F490B406E0709D00F263540042D92
:1078000005D004335D0102D59F220B40121A9B0163
:10781000580AD2B24002D205400AE407104320437E
:1078200070BD002400220020F4E76802400AF1E75E
:10783000FFFFFFFB70B5041E34D001F0AFFE9E22A7
:10784000121A962A07DCD2B208282EDD08388440A6
:107850006002400A21E0992A09DD030021001B3360
:1078600099404B1E994105231B1ADC400C43052807
:1078700001DD431F9C4023000D490B40650709D0E3
:107880000F252C40042C05D004335C0102D59F2227
:107890000B40121A9B01580AD2B24002D205400A8C
:1078A000104370BD00220020F7E76002400AF4E7B1
:1078B000FFFFFFFBF0B54F464646D6460C000903D6
:1078C000C0B5490A470F5E0039431F03DB0F9C46D2
:1078D00065007B0A570F1F436D0DE40F760DA1461F
:1078E000C000B846D200AB1B64457BD0002B5FDDE7
:1078F000002E00D0A4E03E00164300D112E15E1E2F
:10790000002E00D09EE1871A4346B84280410125EF
:10791000C91A4042091A0B0200D431E149024E0A49
:10792000002E00D16EE1300001F038FE0300083B6C
:107930001F2B00DD61E120223900D21A9E40D14088
:107940009F400E439D4200DD51E15D1B6B1C1F2BD0
:1079500000DD7CE12021C91A3D0030008F408840C5
:10796000DD40791E8F41310007222843D940002590
:1079700007433A40002A09D00F233B40042B05D08F
:107980003B1DBB42BF417F42C9191F000B0200D4FF
:1079900026E26A1CC64B55056D0D9A4200D106E1E0
:1079A000C44AFF080A40530752023B43120B8EE0C1
:1079B000002B00D0B8E06B1C5B055B0D012B00DCDD
:1079C00030E1871A4346B842B641CB1A76429E1B35
:1079D000330200D54CE13B003343A1D10022002407
:1079E000002570E0002B00DCE5E0002E00D183E0F4
:1079F000AF4EB54260D0802636043743B846382BA8
:107A000000DC3EE1434613431F007A1E97413F18B6
:107A100087428041404209180B0200D4B0E0A44BD9
:107A200001359D4200D1C3E0A24A7B080A400121F2
:107A30000F401F435108D30707221F433A4099E7DD
:107A40009B4EB54238D0802636043743B846382B93
:107A500000DDDCE01F2B00DC30E11E004746203E4D
:107A6000F740BC46202B04D04026F31A46469E40E1
:107A70003243170063467A1E97411F43CCE0002B28
:107A800000D104E24346134300D159E14B07C0083B
:107A900018438023C9081B03194208D04546ED0846
:107AA0001D4204D14346D008590708432900420F1C
:107AB000C9007F4D1143C0004B07CA087C49C0086C
:107AC00003438D4268D012036D05120B6D0D00212A
:107AD00012031800130B0A0D12051A43764B2D05DD
